{
  "contractName": "ToDoList",
  "abi": [
    {
      "constant": true,
      "inputs": [],
      "name": "biggestId",
      "outputs": [
        {
          "name": "",
          "type": "uint256"
        }
      ],
      "payable": false,
      "stateMutability": "view",
      "type": "function",
      "signature": "0x85ed082b"
    },
    {
      "constant": true,
      "inputs": [
        {
          "name": "",
          "type": "uint256"
        }
      ],
      "name": "tasks",
      "outputs": [
        {
          "name": "id",
          "type": "uint256"
        },
        {
          "name": "content",
          "type": "string"
        },
        {
          "name": "completed",
          "type": "bool"
        },
        {
          "name": "deleted",
          "type": "bool"
        }
      ],
      "payable": false,
      "stateMutability": "view",
      "type": "function",
      "signature": "0x8d977672"
    },
    {
      "constant": true,
      "inputs": [],
      "name": "taskCount",
      "outputs": [
        {
          "name": "",
          "type": "uint256"
        }
      ],
      "payable": false,
      "stateMutability": "view",
      "type": "function",
      "signature": "0xb6cb58a5"
    },
    {
      "inputs": [],
      "payable": false,
      "stateMutability": "nonpayable",
      "type": "constructor",
      "signature": "constructor"
    },
    {
      "anonymous": false,
      "inputs": [
        {
          "indexed": false,
          "name": "id",
          "type": "uint256"
        },
        {
          "indexed": false,
          "name": "content",
          "type": "string"
        },
        {
          "indexed": false,
          "name": "completed",
          "type": "bool"
        },
        {
          "indexed": false,
          "name": "deleted",
          "type": "bool"
        }
      ],
      "name": "TaskCreated",
      "type": "event",
      "signature": "0xd3b5ebbcee14df18f4cab0dc4d660788f6a8d81c06f14b96a8942de3e730f518"
    },
    {
      "anonymous": false,
      "inputs": [
        {
          "indexed": false,
          "name": "id",
          "type": "uint256"
        },
        {
          "indexed": false,
          "name": "completed",
          "type": "bool"
        }
      ],
      "name": "TaskCompleted",
      "type": "event",
      "signature": "0xe21fa966ca5cd02748c0752352d18c48165e61cb55b4c29cccf924b5a95fcff1"
    },
    {
      "anonymous": false,
      "inputs": [
        {
          "indexed": false,
          "name": "id",
          "type": "uint256"
        },
        {
          "indexed": false,
          "name": "deleted",
          "type": "bool"
        }
      ],
      "name": "TaskDeleted",
      "type": "event",
      "signature": "0x572597a6891de3ffc5ddb25adeb4871a3bf451676410ca50eed9524c49bdc0e6"
    },
    {
      "constant": false,
      "inputs": [
        {
          "name": "_content",
          "type": "string"
        }
      ],
      "name": "createTask",
      "outputs": [],
      "payable": false,
      "stateMutability": "nonpayable",
      "type": "function",
      "signature": "0x111002aa"
    },
    {
      "constant": false,
      "inputs": [
        {
          "name": "_id",
          "type": "uint256"
        }
      ],
      "name": "toggleCompleted",
      "outputs": [],
      "payable": false,
      "stateMutability": "nonpayable",
      "type": "function",
      "signature": "0x455f5024"
    },
    {
      "constant": false,
      "inputs": [
        {
          "name": "_id",
          "type": "uint256"
        }
      ],
      "name": "toggleDeleted",
      "outputs": [],
      "payable": false,
      "stateMutability": "nonpayable",
      "type": "function",
      "signature": "0x6c444f56"
    }
  ],
  "bytecode": "0x60806040526000805560006001553480156200001a57600080fd5b506200006a6040805190810160405280600981526020017f74657374207461736b000000000000000000000000000000000000000000000081525062000070640100000000026401000000009004565b620006e1565b60008090505b6000548110156200040c576002600082815260200190815260200160002060020160019054906101000a900460ff16156200022d5760016000815480929190600101919050555060015460026000838152602001908152602001600020600001819055508160026000838152602001908152602001600020600101908051906020019062000106929190620005ab565b5060006002600083815260200190815260200160002060020160006101000a81548160ff02191690831515021790555060006002600083815260200190815260200160002060020160016101000a81548160ff0219169083151502179055507fd3b5ebbcee14df18f4cab0dc4d660788f6a8d81c06f14b96a8942de3e730f5186001548360008060405180858152602001806020018415151515815260200183151515158152602001828103825285818151815260200191508051906020019080838360005b83811015620001e9578082015181840152602081019050620001cc565b50505050905090810190601f168015620002175780820380516001836020036101000a031916815260200191505b509550505050505060405180910390a16200040c565b6002600082815260200190815260200160002060020160019054906101000a900460ff1615801562000263575060016000540381145b15620003fe5760008081548092919060010191905055506001600081548092919060010191905055506080604051908101604052806001548152602001838152602001600015158152602001600015158152506002600080548152602001908152602001600020600082015181600001556020820151816001019080519060200190620002f292919062000632565b5060408201518160020160006101000a81548160ff02191690831515021790555060608201518160020160016101000a81548160ff0219169083151502179055509050507fd3b5ebbcee14df18f4cab0dc4d660788f6a8d81c06f14b96a8942de3e730f5186001548360008060405180858152602001806020018415151515815260200183151515158152602001828103825285818151815260200191508051906020019080838360005b83811015620003ba5780820151818401526020810190506200039d565b50505050905090810190601f168015620003e85780820380516001836020036101000a031916815260200191505b509550505050505060405180910390a16200040c565b808060010191505062000076565b50600080541415620005a85760008081548092919060010191905055506001600081548092919060010191905055506080604051908101604052806001548152602001828152602001600015158152602001600015158152506002600080548152602001908152602001600020600082015181600001556020820151816001019080519060200190620004a192919062000632565b5060408201518160020160006101000a81548160ff02191690831515021790555060608201518160020160016101000a81548160ff0219169083151502179055509050507fd3b5ebbcee14df18f4cab0dc4d660788f6a8d81c06f14b96a8942de3e730f5186001548260008060405180858152602001806020018415151515815260200183151515158152602001828103825285818151815260200191508051906020019080838360005b83811015620005695780820151818401526020810190506200054c565b50505050905090810190601f168015620005975780820380516001836020036101000a031916815260200191505b509550505050505060405180910390a15b50565b828054600181600116156101000203166002900490600052602060002090601f016020900481019282601f10620005ee57805160ff19168380011785556200061f565b828001600101855582156200061f579182015b828111156200061e57825182559160200191906001019062000601565b5b5090506200062e9190620006b9565b5090565b828054600181600116156101000203166002900490600052602060002090601f016020900481019282601f106200067557805160ff1916838001178555620006a6565b82800160010185558215620006a6579182015b82811115620006a557825182559160200191906001019062000688565b5b509050620006b59190620006b9565b5090565b620006de91905b80821115620006da576000816000905550600101620006c0565b5090565b90565b610e4480620006f16000396000f3fe608060405260043610610078576000357c0100000000000000000000000000000000000000000000000000000000900463ffffffff168063111002aa1461007d578063455f5024146101455780636c444f561461018057806385ed082b146101bb5780638d977672146101e6578063b6cb58a5146102b7575b600080fd5b34801561008957600080fd5b50610143600480360360208110156100a057600080fd5b81019080803590602001906401000000008111156100bd57600080fd5b8201836020820111156100cf57600080fd5b803590602001918460018302840111640100000000831117156100f157600080fd5b91908080601f016020809104026020016040519081016040528093929190818152602001838380828437600081840152601f19601f8201169050808301925050505050505091929192905050506102e2565b005b34801561015157600080fd5b5061017e6004803603602081101561016857600080fd5b8101908080359060200190929190505050610806565b005b34801561018c57600080fd5b506101b9600480360360208110156101a357600080fd5b81019080803590602001909291905050506109ef565b005b3480156101c757600080fd5b506101d0610bd8565b6040518082815260200191505060405180910390f35b3480156101f257600080fd5b5061021f6004803603602081101561020957600080fd5b8101908080359060200190929190505050610bde565b60405180858152602001806020018415151515815260200183151515158152602001828103825285818151815260200191508051906020019080838360005b8381101561027957808201518184015260208101905061025e565b50505050905090810190601f1680156102a65780820380516001836020036101000a031916815260200191505b509550505050505060405180910390f35b3480156102c357600080fd5b506102cc610cc0565b6040518082815260200191505060405180910390f35b60008090505b60005481101561066d576002600082815260200190815260200160002060020160019054906101000a900460ff161561049757600160008154809291906001019190505550600154600260008381526020019081526020016000206000018190555081600260008381526020019081526020016000206001019080519060200190610374929190610cc6565b5060006002600083815260200190815260200160002060020160006101000a81548160ff02191690831515021790555060006002600083815260200190815260200160002060020160016101000a81548160ff0219169083151502179055507fd3b5ebbcee14df18f4cab0dc4d660788f6a8d81c06f14b96a8942de3e730f5186001548360008060405180858152602001806020018415151515815260200183151515158152602001828103825285818151815260200191508051906020019080838360005b8381101561045557808201518184015260208101905061043a565b50505050905090810190601f1680156104825780820380516001836020036101000a031916815260200191505b509550505050505060405180910390a161066d565b6002600082815260200190815260200160002060020160019054906101000a900460ff161580156104cc575060016000540381145b156106605760008081548092919060010191905055506001600081548092919060010191905055506080604051908101604052806001548152602001838152602001600015158152602001600015158152506002600080548152602001908152602001600020600082015181600001556020820151816001019080519060200190610558929190610d46565b5060408201518160020160006101000a81548160ff02191690831515021790555060608201518160020160016101000a81548160ff0219169083151502179055509050507fd3b5ebbcee14df18f4cab0dc4d660788f6a8d81c06f14b96a8942de3e730f5186001548360008060405180858152602001806020018415151515815260200183151515158152602001828103825285818151815260200191508051906020019080838360005b8381101561061e578082015181840152602081019050610603565b50505050905090810190601f16801561064b5780820380516001836020036101000a031916815260200191505b509550505050505060405180910390a161066d565b80806001019150506102e8565b5060008054141561080357600080815480929190600101919050555060016000815480929190600101919050555060806040519081016040528060015481526020018281526020016000151581526020016000151581525060026000805481526020019081526020016000206000820151816000015560208201518160010190805190602001906106ff929190610d46565b5060408201518160020160006101000a81548160ff02191690831515021790555060608201518160020160016101000a81548160ff0219169083151502179055509050507fd3b5ebbcee14df18f4cab0dc4d660788f6a8d81c06f14b96a8942de3e730f5186001548260008060405180858152602001806020018415151515815260200183151515158152602001828103825285818151815260200191508051906020019080838360005b838110156107c55780820151818401526020810190506107aa565b50505050905090810190601f1680156107f25780820380516001836020036101000a031916815260200191505b509550505050505060405180910390a15b50565b61080e610dc6565b600260008381526020019081526020016000206080604051908101604052908160008201548152602001600182018054600181600116156101000203166002900480601f0160208091040260200160405190810160405280929190818152602001828054600181600116156101000203166002900480156108d05780601f106108a5576101008083540402835291602001916108d0565b820191906000526020600020905b8154815290600101906020018083116108b357829003601f168201915b505050505081526020016002820160009054906101000a900460ff161515151581526020016002820160019054906101000a900460ff16151515158152505090508060400151158160400190151590811515815250508060026000848152602001908152602001600020600082015181600001556020820151816001019080519060200190610960929190610d46565b5060408201518160020160006101000a81548160ff02191690831515021790555060608201518160020160016101000a81548160ff0219169083151502179055509050507fe21fa966ca5cd02748c0752352d18c48165e61cb55b4c29cccf924b5a95fcff182826040015160405180838152602001821515151581526020019250505060405180910390a15050565b6109f7610dc6565b600260008381526020019081526020016000206080604051908101604052908160008201548152602001600182018054600181600116156101000203166002900480601f016020809104026020016040519081016040528092919081815260200182805460018160011615610100020316600290048015610ab95780601f10610a8e57610100808354040283529160200191610ab9565b820191906000526020600020905b815481529060010190602001808311610a9c57829003601f168201915b505050505081526020016002820160009054906101000a900460ff161515151581526020016002820160019054906101000a900460ff16151515158152505090508060600151158160600190151590811515815250508060026000848152602001908152602001600020600082015181600001556020820151816001019080519060200190610b49929190610d46565b5060408201518160020160006101000a81548160ff02191690831515021790555060608201518160020160016101000a81548160ff0219169083151502179055509050507f572597a6891de3ffc5ddb25adeb4871a3bf451676410ca50eed9524c49bdc0e682826060015160405180838152602001821515151581526020019250505060405180910390a15050565b60015481565b6002602052806000526040600020600091509050806000015490806001018054600181600116156101000203166002900480601f016020809104026020016040519081016040528092919081815260200182805460018160011615610100020316600290048015610c905780601f10610c6557610100808354040283529160200191610c90565b820191906000526020600020905b815481529060010190602001808311610c7357829003601f168201915b5050505050908060020160009054906101000a900460ff16908060020160019054906101000a900460ff16905084565b60005481565b828054600181600116156101000203166002900490600052602060002090601f016020900481019282601f10610d0757805160ff1916838001178555610d35565b82800160010185558215610d35579182015b82811115610d34578251825591602001919060010190610d19565b5b509050610d429190610df3565b5090565b828054600181600116156101000203166002900490600052602060002090601f016020900481019282601f10610d8757805160ff1916838001178555610db5565b82800160010185558215610db5579182015b82811115610db4578251825591602001919060010190610d99565b5b509050610dc29190610df3565b5090565b60806040519081016040528060008152602001606081526020016000151581526020016000151581525090565b610e1591905b80821115610e11576000816000905550600101610df9565b5090565b9056fea165627a7a72305820789e106367cba13788981e757d411a9418435c99ddb2832988ae33faf3357a850029",
  "source": "pragma solidity ^0.5.0;\r\n\r\n//import \"openzeppelin-solidity/contracts/utils/math/SafeMath.sol\";\r\n\r\ncontract ToDoList{\r\n\r\n    //using SafeMath for uint256;\r\n\r\n    uint public taskCount = 0;\r\n    uint public biggestId = 0;\r\n\r\n    struct Task{\r\n        uint id;\r\n        string content;\r\n        bool completed;\r\n        bool deleted;\r\n    }\r\n\r\n    mapping (uint => Task) public tasks;\r\n\r\n    event TaskCreated(uint id, string content, bool completed, bool deleted);\r\n    event TaskCompleted(uint id, bool completed);\r\n    event TaskDeleted(uint id, bool deleted);\r\n\r\n    constructor() public{\r\n        createTask(\"test task\");\r\n    }\r\n\r\n    // if a task has been completed and flagged to true, createTask function will replace the completed task\r\n    // with a new one updating the id to a greater one (biggest)  \r\n    function createTask(string memory _content) public{\r\n        for(uint i=0; i<taskCount; i++){\r\n            if(tasks[i].deleted){\r\n                biggestId ++;\r\n                tasks[i].id = biggestId;\r\n                tasks[i].content = _content;\r\n                tasks[i].completed = false;\r\n                tasks[i].deleted = false;\r\n                emit TaskCreated(biggestId, _content, false, false);\r\n                break;\r\n            }\r\n            else if(!tasks[i].deleted && i==taskCount-1){\r\n                taskCount ++;\r\n                biggestId ++;\r\n                tasks[taskCount] = Task(biggestId, _content, false, false);\r\n                emit TaskCreated(biggestId, _content, false, false);\r\n                break;\r\n            }\r\n        }\r\n        if(taskCount == 0){\r\n            taskCount ++;\r\n            biggestId ++;\r\n            tasks[taskCount] = Task(biggestId, _content, false, false);\r\n            emit TaskCreated(biggestId, _content, false, false);\r\n        }\r\n    }\r\n\r\n    function toggleCompleted(uint _id) public {\r\n        Task memory _task = tasks[_id];\r\n        _task.completed = !_task.completed;\r\n        tasks[_id] = _task;\r\n        emit TaskCompleted(_id, _task.completed);\r\n    }\r\n\r\n    function toggleDeleted(uint _id) public {\r\n        Task memory _task = tasks[_id];\r\n        _task.deleted = !_task.deleted;\r\n        tasks[_id] = _task;\r\n        emit TaskDeleted(_id, _task.deleted);\r\n    }\r\n}",
  "sourcePath": "C:/Users/Federico Mioli/Desktop/Personale/git projects/To_do_list/src/contracts/ToDoList.sol",
  "compiler": {
    "name": "solc",
    "version": "0.5.0+commit.1d4f565a.Emscripten.clang"
  },
  "schemaVersion": "3.0.1",
  "updatedAt": "2022-06-17T16:23:36.501Z",
  "devdoc": {
    "methods": {}
  },
  "userdoc": {
    "methods": {}
  }
}