{
  "contractName": "ToDoList",
  "abi": [
    {
      "constant": true,
      "inputs": [],
      "name": "biggestId",
      "outputs": [
        {
          "name": "",
          "type": "uint256"
        }
      ],
      "payable": false,
      "stateMutability": "view",
      "type": "function",
      "signature": "0x85ed082b"
    },
    {
      "constant": true,
      "inputs": [
        {
          "name": "",
          "type": "uint256"
        }
      ],
      "name": "tasks",
      "outputs": [
        {
          "name": "id",
          "type": "uint256"
        },
        {
          "name": "content",
          "type": "string"
        },
        {
          "name": "completed",
          "type": "bool"
        },
        {
          "name": "deleted",
          "type": "bool"
        }
      ],
      "payable": false,
      "stateMutability": "view",
      "type": "function",
      "signature": "0x8d977672"
    },
    {
      "constant": true,
      "inputs": [],
      "name": "owner",
      "outputs": [
        {
          "name": "",
          "type": "address"
        }
      ],
      "payable": false,
      "stateMutability": "view",
      "type": "function",
      "signature": "0x8da5cb5b"
    },
    {
      "constant": true,
      "inputs": [],
      "name": "taskCount",
      "outputs": [
        {
          "name": "",
          "type": "uint256"
        }
      ],
      "payable": false,
      "stateMutability": "view",
      "type": "function",
      "signature": "0xb6cb58a5"
    },
    {
      "inputs": [],
      "payable": false,
      "stateMutability": "nonpayable",
      "type": "constructor",
      "signature": "constructor"
    },
    {
      "anonymous": false,
      "inputs": [
        {
          "indexed": false,
          "name": "id",
          "type": "uint256"
        },
        {
          "indexed": false,
          "name": "content",
          "type": "string"
        },
        {
          "indexed": false,
          "name": "completed",
          "type": "bool"
        },
        {
          "indexed": false,
          "name": "deleted",
          "type": "bool"
        }
      ],
      "name": "TaskCreated",
      "type": "event",
      "signature": "0xd3b5ebbcee14df18f4cab0dc4d660788f6a8d81c06f14b96a8942de3e730f518"
    },
    {
      "anonymous": false,
      "inputs": [
        {
          "indexed": false,
          "name": "id",
          "type": "uint256"
        },
        {
          "indexed": false,
          "name": "completed",
          "type": "bool"
        }
      ],
      "name": "TaskCompleted",
      "type": "event",
      "signature": "0xe21fa966ca5cd02748c0752352d18c48165e61cb55b4c29cccf924b5a95fcff1"
    },
    {
      "anonymous": false,
      "inputs": [
        {
          "indexed": false,
          "name": "id",
          "type": "uint256"
        },
        {
          "indexed": false,
          "name": "deleted",
          "type": "bool"
        }
      ],
      "name": "TaskDeleted",
      "type": "event",
      "signature": "0x572597a6891de3ffc5ddb25adeb4871a3bf451676410ca50eed9524c49bdc0e6"
    },
    {
      "anonymous": false,
      "inputs": [
        {
          "indexed": false,
          "name": "id",
          "type": "uint256"
        },
        {
          "indexed": false,
          "name": "content",
          "type": "string"
        }
      ],
      "name": "TaskEdited",
      "type": "event",
      "signature": "0x126a0ea5197c062eb92c789989294eb8d2aef31cf41fd012da26dfab98b29a16"
    },
    {
      "constant": false,
      "inputs": [
        {
          "name": "_content",
          "type": "string"
        }
      ],
      "name": "createTask",
      "outputs": [],
      "payable": false,
      "stateMutability": "nonpayable",
      "type": "function",
      "signature": "0x111002aa"
    },
    {
      "constant": false,
      "inputs": [
        {
          "name": "_id",
          "type": "uint256"
        }
      ],
      "name": "toggleCompleted",
      "outputs": [],
      "payable": false,
      "stateMutability": "nonpayable",
      "type": "function",
      "signature": "0x455f5024"
    },
    {
      "constant": false,
      "inputs": [
        {
          "name": "_id",
          "type": "uint256"
        }
      ],
      "name": "toggleDeleted",
      "outputs": [],
      "payable": false,
      "stateMutability": "nonpayable",
      "type": "function",
      "signature": "0x6c444f56"
    },
    {
      "constant": false,
      "inputs": [
        {
          "name": "_id",
          "type": "uint256"
        },
        {
          "name": "_content",
          "type": "string"
        }
      ],
      "name": "editTask",
      "outputs": [],
      "payable": false,
      "stateMutability": "nonpayable",
      "type": "function",
      "signature": "0xcb7bd995"
    }
  ],
  "bytecode": "0x6080604052600060015560006002553480156200001b57600080fd5b50336000806101000a81548173ffffffffffffffffffffffffffffffffffffffff021916908373ffffffffffffffffffffffffffffffffffffffff160217905550620000ab6040805190810160405280600981526020017f74657374207461736b0000000000000000000000000000000000000000000000815250620000b1640100000000026401000000009004565b62000782565b6000809054906101000a900473ffffffffffffffffffffffffffffffffffffffff1673ffffffffffffffffffffffffffffffffffffffff163373ffffffffffffffffffffffffffffffffffffffff161415156200010d57600080fd5b6000600190505b60015481111515620004aa576003600082815260200190815260200160002060020160019054906101000a900460ff1615620002cc57600260008154809291906001019190505550600254600360008381526020019081526020016000206000018190555081600360008381526020019081526020016000206001019080519060200190620001a59291906200064c565b5060006003600083815260200190815260200160002060020160006101000a81548160ff02191690831515021790555060006003600083815260200190815260200160002060020160016101000a81548160ff0219169083151502179055507fd3b5ebbcee14df18f4cab0dc4d660788f6a8d81c06f14b96a8942de3e730f5186002548360008060405180858152602001806020018415151515815260200183151515158152602001828103825285818151815260200191508051906020019080838360005b83811015620002885780820151818401526020810190506200026b565b50505050905090810190601f168015620002b65780820380516001836020036101000a031916815260200191505b509550505050505060405180910390a1620004aa565b6003600082815260200190815260200160002060020160019054906101000a900460ff16158015620002ff575060015481145b156200049c5760016000815480929190600101919050555060026000815480929190600101919050555060806040519081016040528060025481526020018381526020016000151581526020016000151581525060036000600154815260200190815260200160002060008201518160000155602082015181600101908051906020019062000390929190620006d3565b5060408201518160020160006101000a81548160ff02191690831515021790555060608201518160020160016101000a81548160ff0219169083151502179055509050507fd3b5ebbcee14df18f4cab0dc4d660788f6a8d81c06f14b96a8942de3e730f5186002548360008060405180858152602001806020018415151515815260200183151515158152602001828103825285818151815260200191508051906020019080838360005b83811015620004585780820151818401526020810190506200043b565b50505050905090810190601f168015620004865780820380516001836020036101000a031916815260200191505b509550505050505060405180910390a1620004aa565b808060010191505062000114565b5060006001541415620006495760016000815480929190600101919050555060026000815480929190600101919050555060806040519081016040528060025481526020018281526020016000151581526020016000151581525060036000600154815260200190815260200160002060008201518160000155602082015181600101908051906020019062000542929190620006d3565b5060408201518160020160006101000a81548160ff02191690831515021790555060608201518160020160016101000a81548160ff0219169083151502179055509050507fd3b5ebbcee14df18f4cab0dc4d660788f6a8d81c06f14b96a8942de3e730f5186002548260008060405180858152602001806020018415151515815260200183151515158152602001828103825285818151815260200191508051906020019080838360005b838110156200060a578082015181840152602081019050620005ed565b50505050905090810190601f168015620006385780820380516001836020036101000a031916815260200191505b509550505050505060405180910390a15b50565b828054600181600116156101000203166002900490600052602060002090601f016020900481019282601f106200068f57805160ff1916838001178555620006c0565b82800160010185558215620006c0579182015b82811115620006bf578251825591602001919060010190620006a2565b5b509050620006cf91906200075a565b5090565b828054600181600116156101000203166002900490600052602060002090601f016020900481019282601f106200071657805160ff191683800117855562000747565b8280016001018555821562000747579182015b828111156200074657825182559160200191906001019062000729565b5b5090506200075691906200075a565b5090565b6200077f91905b808211156200077b57600081600090555060010162000761565b5090565b90565b6112b480620007926000396000f3fe60806040526004361061008e576000357c0100000000000000000000000000000000000000000000000000000000900463ffffffff168063111002aa14610093578063455f50241461015b5780636c444f561461019657806385ed082b146101d15780638d977672146101fc5780638da5cb5b146102cd578063b6cb58a514610324578063cb7bd9951461034f575b600080fd5b34801561009f57600080fd5b50610159600480360360208110156100b657600080fd5b81019080803590602001906401000000008111156100d357600080fd5b8201836020820111156100e557600080fd5b8035906020019184600183028401116401000000008311171561010757600080fd5b91908080601f016020809104026020016040519081016040528093929190818152602001838380828437600081840152601f19601f820116905080830192505050505050509192919290505050610421565b005b34801561016757600080fd5b506101946004803603602081101561017e57600080fd5b81019080803590602001909291905050506109a4565b005b3480156101a257600080fd5b506101cf600480360360208110156101b957600080fd5b8101908080359060200190929190505050610c2b565b005b3480156101dd57600080fd5b506101e6610eb2565b6040518082815260200191505060405180910390f35b34801561020857600080fd5b506102356004803603602081101561021f57600080fd5b8101908080359060200190929190505050610eb8565b60405180858152602001806020018415151515815260200183151515158152602001828103825285818151815260200191508051906020019080838360005b8381101561028f578082015181840152602081019050610274565b50505050905090810190601f1680156102bc5780820380516001836020036101000a031916815260200191505b509550505050505060405180910390f35b3480156102d957600080fd5b506102e2610f9a565b604051808273ffffffffffffffffffffffffffffffffffffffff1673ffffffffffffffffffffffffffffffffffffffff16815260200191505060405180910390f35b34801561033057600080fd5b50610339610fbf565b6040518082815260200191505060405180910390f35b34801561035b57600080fd5b5061041f6004803603604081101561037257600080fd5b81019080803590602001909291908035906020019064010000000081111561039957600080fd5b8201836020820111156103ab57600080fd5b803590602001918460018302840111640100000000831117156103cd57600080fd5b91908080601f016020809104026020016040519081016040528093929190818152602001838380828437600081840152601f19601f820116905080830192505050505050509192919290505050610fc5565b005b6000809054906101000a900473ffffffffffffffffffffffffffffffffffffffff1673ffffffffffffffffffffffffffffffffffffffff163373ffffffffffffffffffffffffffffffffffffffff1614151561047c57600080fd5b6000600190505b60015481111515610808576003600082815260200190815260200160002060020160019054906101000a900460ff161561063357600260008154809291906001019190505550600254600360008381526020019081526020016000206000018190555081600360008381526020019081526020016000206001019080519060200190610510929190611136565b5060006003600083815260200190815260200160002060020160006101000a81548160ff02191690831515021790555060006003600083815260200190815260200160002060020160016101000a81548160ff0219169083151502179055507fd3b5ebbcee14df18f4cab0dc4d660788f6a8d81c06f14b96a8942de3e730f5186002548360008060405180858152602001806020018415151515815260200183151515158152602001828103825285818151815260200191508051906020019080838360005b838110156105f15780820151818401526020810190506105d6565b50505050905090810190601f16801561061e5780820380516001836020036101000a031916815260200191505b509550505050505060405180910390a1610808565b6003600082815260200190815260200160002060020160019054906101000a900460ff16158015610665575060015481145b156107fb576001600081548092919060010191905055506002600081548092919060010191905055506080604051908101604052806002548152602001838152602001600015158152602001600015158152506003600060015481526020019081526020016000206000820151816000015560208201518160010190805190602001906106f39291906111b6565b5060408201518160020160006101000a81548160ff02191690831515021790555060608201518160020160016101000a81548160ff0219169083151502179055509050507fd3b5ebbcee14df18f4cab0dc4d660788f6a8d81c06f14b96a8942de3e730f5186002548360008060405180858152602001806020018415151515815260200183151515158152602001828103825285818151815260200191508051906020019080838360005b838110156107b957808201518184015260208101905061079e565b50505050905090810190601f1680156107e65780820380516001836020036101000a031916815260200191505b509550505050505060405180910390a1610808565b8080600101915050610483565b50600060015414156109a15760016000815480929190600101919050555060026000815480929190600101919050555060806040519081016040528060025481526020018281526020016000151581526020016000151581525060036000600154815260200190815260200160002060008201518160000155602082015181600101908051906020019061089d9291906111b6565b5060408201518160020160006101000a81548160ff02191690831515021790555060608201518160020160016101000a81548160ff0219169083151502179055509050507fd3b5ebbcee14df18f4cab0dc4d660788f6a8d81c06f14b96a8942de3e730f5186002548260008060405180858152602001806020018415151515815260200183151515158152602001828103825285818151815260200191508051906020019080838360005b83811015610963578082015181840152602081019050610948565b50505050905090810190601f1680156109905780820380516001836020036101000a031916815260200191505b509550505050505060405180910390a15b50565b6000809054906101000a900473ffffffffffffffffffffffffffffffffffffffff1673ffffffffffffffffffffffffffffffffffffffff163373ffffffffffffffffffffffffffffffffffffffff161415156109ff57600080fd5b6000600190505b60015481111515610c27578160036000838152602001908152602001600020600001541415610c1a57610a37611236565b600360008381526020019081526020016000206080604051908101604052908160008201548152602001600182018054600181600116156101000203166002900480601f016020809104026020016040519081016040528092919081815260200182805460018160011615610100020316600290048015610af95780601f10610ace57610100808354040283529160200191610af9565b820191906000526020600020905b815481529060010190602001808311610adc57829003601f168201915b505050505081526020016002820160009054906101000a900460ff161515151581526020016002820160019054906101000a900460ff16151515158152505090508060400151158160400190151590811515815250508060036000848152602001908152602001600020600082015181600001556020820151816001019080519060200190610b899291906111b6565b5060408201518160020160006101000a81548160ff02191690831515021790555060608201518160020160016101000a81548160ff0219169083151502179055509050507fe21fa966ca5cd02748c0752352d18c48165e61cb55b4c29cccf924b5a95fcff183826040015160405180838152602001821515151581526020019250505060405180910390a150610c27565b8080600101915050610a06565b5050565b6000809054906101000a900473ffffffffffffffffffffffffffffffffffffffff1673ffffffffffffffffffffffffffffffffffffffff163373ffffffffffffffffffffffffffffffffffffffff16141515610c8657600080fd5b6000600190505b60015481111515610eae578160036000838152602001908152602001600020600001541415610ea157610cbe611236565b600360008381526020019081526020016000206080604051908101604052908160008201548152602001600182018054600181600116156101000203166002900480601f016020809104026020016040519081016040528092919081815260200182805460018160011615610100020316600290048015610d805780601f10610d5557610100808354040283529160200191610d80565b820191906000526020600020905b815481529060010190602001808311610d6357829003601f168201915b505050505081526020016002820160009054906101000a900460ff161515151581526020016002820160019054906101000a900460ff16151515158152505090508060600151158160600190151590811515815250508060036000848152602001908152602001600020600082015181600001556020820151816001019080519060200190610e109291906111b6565b5060408201518160020160006101000a81548160ff02191690831515021790555060608201518160020160016101000a81548160ff0219169083151502179055509050507f572597a6891de3ffc5ddb25adeb4871a3bf451676410ca50eed9524c49bdc0e683826060015160405180838152602001821515151581526020019250505060405180910390a150610eae565b8080600101915050610c8d565b5050565b60025481565b6003602052806000526040600020600091509050806000015490806001018054600181600116156101000203166002900480601f016020809104026020016040519081016040528092919081815260200182805460018160011615610100020316600290048015610f6a5780601f10610f3f57610100808354040283529160200191610f6a565b820191906000526020600020905b815481529060010190602001808311610f4d57829003601f168201915b5050505050908060020160009054906101000a900460ff16908060020160019054906101000a900460ff16905084565b6000809054906101000a900473ffffffffffffffffffffffffffffffffffffffff1681565b60015481565b6000809054906101000a900473ffffffffffffffffffffffffffffffffffffffff1673ffffffffffffffffffffffffffffffffffffffff163373ffffffffffffffffffffffffffffffffffffffff1614151561102057600080fd5b6000600190505b60015481111515611131578260036000838152602001908152602001600020600001541415611124578160036000838152602001908152602001600020600101908051906020019061107a929190611136565b507f126a0ea5197c062eb92c789989294eb8d2aef31cf41fd012da26dfab98b29a1683836040518083815260200180602001828103825283818151815260200191508051906020019080838360005b838110156110e45780820151818401526020810190506110c9565b50505050905090810190601f1680156111115780820380516001836020036101000a031916815260200191505b50935050505060405180910390a1611131565b8080600101915050611027565b505050565b828054600181600116156101000203166002900490600052602060002090601f016020900481019282601f1061117757805160ff19168380011785556111a5565b828001600101855582156111a5579182015b828111156111a4578251825591602001919060010190611189565b5b5090506111b29190611263565b5090565b828054600181600116156101000203166002900490600052602060002090601f016020900481019282601f106111f757805160ff1916838001178555611225565b82800160010185558215611225579182015b82811115611224578251825591602001919060010190611209565b5b5090506112329190611263565b5090565b60806040519081016040528060008152602001606081526020016000151581526020016000151581525090565b61128591905b80821115611281576000816000905550600101611269565b5090565b9056fea165627a7a7230582044806decdbaa248272efef95d071a3b353e58fffc28e09c7f53a9abccb946bde0029",
  "source": "pragma solidity ^0.5.0;\r\n\r\n//import \"openzeppelin-solidity/contracts/utils/math/SafeMath.sol\";\r\n\r\ncontract ToDoList{\r\n\r\n    //using SafeMath for uint256;\r\n\r\n    address public owner;\r\n    uint public taskCount = 0;\r\n    uint public biggestId = 0;\r\n\r\n    modifier onlyOwner(){\r\n        require(msg.sender == owner);\r\n        _;\r\n    }\r\n\r\n    constructor() public{\r\n        owner = msg.sender;\r\n        createTask(\"test task\");\r\n    }\r\n\r\n    struct Task{\r\n        uint id;\r\n        string content;\r\n        bool completed;\r\n        bool deleted;\r\n    }\r\n\r\n    mapping (uint => Task) public tasks;\r\n\r\n    event TaskCreated(uint id, string content, bool completed, bool deleted);\r\n    event TaskCompleted(uint id, bool completed);\r\n    event TaskDeleted(uint id, bool deleted);\r\n    event TaskEdited(uint id, string content);\r\n\r\n\r\n    // if a task has been completed and flagged to true, createTask function will replace the completed task\r\n    // with a new one updating the id to a greater one (biggest)  \r\n    function createTask(string memory _content) public onlyOwner{\r\n        for(uint i=1; i<=taskCount; i++){\r\n            if(tasks[i].deleted){\r\n                biggestId ++;\r\n                tasks[i].id = biggestId;\r\n                tasks[i].content = _content;\r\n                tasks[i].completed = false;\r\n                tasks[i].deleted = false;\r\n                emit TaskCreated(biggestId, _content, false, false);\r\n                break;\r\n            }\r\n            else if(!tasks[i].deleted && i==taskCount){\r\n                taskCount ++;\r\n                biggestId ++;\r\n                tasks[taskCount] = Task(biggestId, _content, false, false);\r\n                emit TaskCreated(biggestId, _content, false, false);\r\n                break;\r\n            }\r\n        }\r\n        if(taskCount == 0){\r\n            taskCount ++;\r\n            biggestId ++;\r\n            tasks[taskCount] = Task(biggestId, _content, false, false);\r\n            emit TaskCreated(biggestId, _content, false, false);\r\n        }\r\n    }\r\n\r\n    function toggleCompleted(uint _id) public onlyOwner{\r\n        for(uint i=1; i<=taskCount; i++){\r\n            if(tasks[i].id == _id){\r\n                Task memory _task = tasks[i];\r\n                _task.completed = !_task.completed;\r\n                tasks[i] = _task;\r\n                emit TaskCompleted(_id, _task.completed);\r\n                break;\r\n            }\r\n        }\r\n    }\r\n\r\n    function toggleDeleted(uint _id) public onlyOwner{\r\n        for(uint i=1; i<=taskCount; i++){\r\n            if(tasks[i].id == _id){\r\n                Task memory _task = tasks[i];\r\n                _task.deleted = !_task.deleted;\r\n                tasks[i] = _task;\r\n                emit TaskDeleted(_id, _task.deleted);\r\n                break;\r\n            }\r\n        }\r\n    }\r\n\r\n    function editTask(uint _id, string memory _content) public onlyOwner{\r\n        for(uint i=1; i<=taskCount; i++){\r\n            if(tasks[i].id == _id){\r\n                tasks[i].content = _content;\r\n                emit TaskEdited(_id, _content);\r\n                break;\r\n            }\r\n        }\r\n    }\r\n}",
  "sourcePath": "C:/Users/Federico Mioli/Desktop/Personale/git projects/To_do_list/src/contracts/ToDoList.sol",
  "compiler": {
    "name": "solc",
    "version": "0.5.0+commit.1d4f565a.Emscripten.clang"
  },
  "schemaVersion": "3.0.1",
  "updatedAt": "2022-06-21T09:17:14.362Z",
  "devdoc": {
    "methods": {}
  },
  "userdoc": {
    "methods": {}
  }
}