{
  "contractName": "ToDoList",
  "abi": [
    {
      "constant": true,
      "inputs": [],
      "name": "biggestId",
      "outputs": [
        {
          "name": "",
          "type": "uint256"
        }
      ],
      "payable": false,
      "stateMutability": "view",
      "type": "function",
      "signature": "0x85ed082b"
    },
    {
      "constant": true,
      "inputs": [
        {
          "name": "",
          "type": "uint256"
        }
      ],
      "name": "tasks",
      "outputs": [
        {
          "name": "id",
          "type": "uint256"
        },
        {
          "name": "content",
          "type": "string"
        },
        {
          "name": "completed",
          "type": "bool"
        },
        {
          "name": "deleted",
          "type": "bool"
        }
      ],
      "payable": false,
      "stateMutability": "view",
      "type": "function",
      "signature": "0x8d977672"
    },
    {
      "constant": true,
      "inputs": [],
      "name": "taskCount",
      "outputs": [
        {
          "name": "",
          "type": "uint256"
        }
      ],
      "payable": false,
      "stateMutability": "view",
      "type": "function",
      "signature": "0xb6cb58a5"
    },
    {
      "inputs": [],
      "payable": false,
      "stateMutability": "nonpayable",
      "type": "constructor",
      "signature": "constructor"
    },
    {
      "anonymous": false,
      "inputs": [
        {
          "indexed": false,
          "name": "id",
          "type": "uint256"
        },
        {
          "indexed": false,
          "name": "content",
          "type": "string"
        },
        {
          "indexed": false,
          "name": "completed",
          "type": "bool"
        },
        {
          "indexed": false,
          "name": "deleted",
          "type": "bool"
        }
      ],
      "name": "TaskCreated",
      "type": "event",
      "signature": "0xd3b5ebbcee14df18f4cab0dc4d660788f6a8d81c06f14b96a8942de3e730f518"
    },
    {
      "anonymous": false,
      "inputs": [
        {
          "indexed": false,
          "name": "id",
          "type": "uint256"
        },
        {
          "indexed": false,
          "name": "completed",
          "type": "bool"
        }
      ],
      "name": "TaskCompleted",
      "type": "event",
      "signature": "0xe21fa966ca5cd02748c0752352d18c48165e61cb55b4c29cccf924b5a95fcff1"
    },
    {
      "anonymous": false,
      "inputs": [
        {
          "indexed": false,
          "name": "id",
          "type": "uint256"
        },
        {
          "indexed": false,
          "name": "deleted",
          "type": "bool"
        }
      ],
      "name": "TaskDeleted",
      "type": "event",
      "signature": "0x572597a6891de3ffc5ddb25adeb4871a3bf451676410ca50eed9524c49bdc0e6"
    },
    {
      "anonymous": false,
      "inputs": [
        {
          "indexed": false,
          "name": "id",
          "type": "uint256"
        },
        {
          "indexed": false,
          "name": "content",
          "type": "string"
        }
      ],
      "name": "TaskEdited",
      "type": "event",
      "signature": "0x126a0ea5197c062eb92c789989294eb8d2aef31cf41fd012da26dfab98b29a16"
    },
    {
      "constant": false,
      "inputs": [
        {
          "name": "_content",
          "type": "string"
        }
      ],
      "name": "createTask",
      "outputs": [],
      "payable": false,
      "stateMutability": "nonpayable",
      "type": "function",
      "signature": "0x111002aa"
    },
    {
      "constant": false,
      "inputs": [
        {
          "name": "_id",
          "type": "uint256"
        }
      ],
      "name": "toggleCompleted",
      "outputs": [],
      "payable": false,
      "stateMutability": "nonpayable",
      "type": "function",
      "signature": "0x455f5024"
    },
    {
      "constant": false,
      "inputs": [
        {
          "name": "_id",
          "type": "uint256"
        }
      ],
      "name": "toggleDeleted",
      "outputs": [],
      "payable": false,
      "stateMutability": "nonpayable",
      "type": "function",
      "signature": "0x6c444f56"
    },
    {
      "constant": false,
      "inputs": [
        {
          "name": "_id",
          "type": "uint256"
        },
        {
          "name": "_content",
          "type": "string"
        }
      ],
      "name": "editTask",
      "outputs": [],
      "payable": false,
      "stateMutability": "nonpayable",
      "type": "function",
      "signature": "0xcb7bd995"
    }
  ],
  "bytecode": "0x60806040526000805560006001553480156200001a57600080fd5b506200006a6040805190810160405280600981526020017f74657374207461736b000000000000000000000000000000000000000000000081525062000070640100000000026401000000009004565b620006e1565b60008090505b6000548110156200040c576002600082815260200190815260200160002060020160019054906101000a900460ff16156200022d5760016000815480929190600101919050555060015460026000838152602001908152602001600020600001819055508160026000838152602001908152602001600020600101908051906020019062000106929190620005ab565b5060006002600083815260200190815260200160002060020160006101000a81548160ff02191690831515021790555060006002600083815260200190815260200160002060020160016101000a81548160ff0219169083151502179055507fd3b5ebbcee14df18f4cab0dc4d660788f6a8d81c06f14b96a8942de3e730f5186001548360008060405180858152602001806020018415151515815260200183151515158152602001828103825285818151815260200191508051906020019080838360005b83811015620001e9578082015181840152602081019050620001cc565b50505050905090810190601f168015620002175780820380516001836020036101000a031916815260200191505b509550505050505060405180910390a16200040c565b6002600082815260200190815260200160002060020160019054906101000a900460ff1615801562000263575060016000540381145b15620003fe5760008081548092919060010191905055506001600081548092919060010191905055506080604051908101604052806001548152602001838152602001600015158152602001600015158152506002600080548152602001908152602001600020600082015181600001556020820151816001019080519060200190620002f292919062000632565b5060408201518160020160006101000a81548160ff02191690831515021790555060608201518160020160016101000a81548160ff0219169083151502179055509050507fd3b5ebbcee14df18f4cab0dc4d660788f6a8d81c06f14b96a8942de3e730f5186001548360008060405180858152602001806020018415151515815260200183151515158152602001828103825285818151815260200191508051906020019080838360005b83811015620003ba5780820151818401526020810190506200039d565b50505050905090810190601f168015620003e85780820380516001836020036101000a031916815260200191505b509550505050505060405180910390a16200040c565b808060010191505062000076565b50600080541415620005a85760008081548092919060010191905055506001600081548092919060010191905055506080604051908101604052806001548152602001828152602001600015158152602001600015158152506002600080548152602001908152602001600020600082015181600001556020820151816001019080519060200190620004a192919062000632565b5060408201518160020160006101000a81548160ff02191690831515021790555060608201518160020160016101000a81548160ff0219169083151502179055509050507fd3b5ebbcee14df18f4cab0dc4d660788f6a8d81c06f14b96a8942de3e730f5186001548260008060405180858152602001806020018415151515815260200183151515158152602001828103825285818151815260200191508051906020019080838360005b83811015620005695780820151818401526020810190506200054c565b50505050905090810190601f168015620005975780820380516001836020036101000a031916815260200191505b509550505050505060405180910390a15b50565b828054600181600116156101000203166002900490600052602060002090601f016020900481019282601f10620005ee57805160ff19168380011785556200061f565b828001600101855582156200061f579182015b828111156200061e57825182559160200191906001019062000601565b5b5090506200062e9190620006b9565b5090565b828054600181600116156101000203166002900490600052602060002090601f016020900481019282601f106200067557805160ff1916838001178555620006a6565b82800160010185558215620006a6579182015b82811115620006a557825182559160200191906001019062000688565b5b509050620006b59190620006b9565b5090565b620006de91905b80821115620006da576000816000905550600101620006c0565b5090565b90565b6110b780620006f16000396000f3fe608060405260043610610083576000357c0100000000000000000000000000000000000000000000000000000000900463ffffffff168063111002aa14610088578063455f5024146101505780636c444f561461018b57806385ed082b146101c65780638d977672146101f1578063b6cb58a5146102c2578063cb7bd995146102ed575b600080fd5b34801561009457600080fd5b5061014e600480360360208110156100ab57600080fd5b81019080803590602001906401000000008111156100c857600080fd5b8201836020820111156100da57600080fd5b803590602001918460018302840111640100000000831117156100fc57600080fd5b91908080601f016020809104026020016040519081016040528093929190818152602001838380828437600081840152601f19601f8201169050808301925050505050505091929192905050506103bf565b005b34801561015c57600080fd5b506101896004803603602081101561017357600080fd5b81019080803590602001909291905050506108e3565b005b34801561019757600080fd5b506101c4600480360360208110156101ae57600080fd5b8101908080359060200190929190505050610b0d565b005b3480156101d257600080fd5b506101db610d37565b6040518082815260200191505060405180910390f35b3480156101fd57600080fd5b5061022a6004803603602081101561021457600080fd5b8101908080359060200190929190505050610d3d565b60405180858152602001806020018415151515815260200183151515158152602001828103825285818151815260200191508051906020019080838360005b83811015610284578082015181840152602081019050610269565b50505050905090810190601f1680156102b15780820380516001836020036101000a031916815260200191505b509550505050505060405180910390f35b3480156102ce57600080fd5b506102d7610e1f565b6040518082815260200191505060405180910390f35b3480156102f957600080fd5b506103bd6004803603604081101561031057600080fd5b81019080803590602001909291908035906020019064010000000081111561033757600080fd5b82018360208201111561034957600080fd5b8035906020019184600183028401116401000000008311171561036b57600080fd5b91908080601f016020809104026020016040519081016040528093929190818152602001838380828437600081840152601f19601f820116905080830192505050505050509192919290505050610e25565b005b60008090505b60005481101561074a576002600082815260200190815260200160002060020160019054906101000a900460ff161561057457600160008154809291906001019190505550600154600260008381526020019081526020016000206000018190555081600260008381526020019081526020016000206001019080519060200190610451929190610f39565b5060006002600083815260200190815260200160002060020160006101000a81548160ff02191690831515021790555060006002600083815260200190815260200160002060020160016101000a81548160ff0219169083151502179055507fd3b5ebbcee14df18f4cab0dc4d660788f6a8d81c06f14b96a8942de3e730f5186001548360008060405180858152602001806020018415151515815260200183151515158152602001828103825285818151815260200191508051906020019080838360005b83811015610532578082015181840152602081019050610517565b50505050905090810190601f16801561055f5780820380516001836020036101000a031916815260200191505b509550505050505060405180910390a161074a565b6002600082815260200190815260200160002060020160019054906101000a900460ff161580156105a9575060016000540381145b1561073d5760008081548092919060010191905055506001600081548092919060010191905055506080604051908101604052806001548152602001838152602001600015158152602001600015158152506002600080548152602001908152602001600020600082015181600001556020820151816001019080519060200190610635929190610fb9565b5060408201518160020160006101000a81548160ff02191690831515021790555060608201518160020160016101000a81548160ff0219169083151502179055509050507fd3b5ebbcee14df18f4cab0dc4d660788f6a8d81c06f14b96a8942de3e730f5186001548360008060405180858152602001806020018415151515815260200183151515158152602001828103825285818151815260200191508051906020019080838360005b838110156106fb5780820151818401526020810190506106e0565b50505050905090810190601f1680156107285780820380516001836020036101000a031916815260200191505b509550505050505060405180910390a161074a565b80806001019150506103c5565b506000805414156108e057600080815480929190600101919050555060016000815480929190600101919050555060806040519081016040528060015481526020018281526020016000151581526020016000151581525060026000805481526020019081526020016000206000820151816000015560208201518160010190805190602001906107dc929190610fb9565b5060408201518160020160006101000a81548160ff02191690831515021790555060608201518160020160016101000a81548160ff0219169083151502179055509050507fd3b5ebbcee14df18f4cab0dc4d660788f6a8d81c06f14b96a8942de3e730f5186001548260008060405180858152602001806020018415151515815260200183151515158152602001828103825285818151815260200191508051906020019080838360005b838110156108a2578082015181840152602081019050610887565b50505050905090810190601f1680156108cf5780820380516001836020036101000a031916815260200191505b509550505050505060405180910390a15b50565b60008090505b600054811015610b09578160026000838152602001908152602001600020600001541415610afc57610919611039565b600260008381526020019081526020016000206080604051908101604052908160008201548152602001600182018054600181600116156101000203166002900480601f0160208091040260200160405190810160405280929190818152602001828054600181600116156101000203166002900480156109db5780601f106109b0576101008083540402835291602001916109db565b820191906000526020600020905b8154815290600101906020018083116109be57829003601f168201915b505050505081526020016002820160009054906101000a900460ff161515151581526020016002820160019054906101000a900460ff16151515158152505090508060400151158160400190151590811515815250508060026000848152602001908152602001600020600082015181600001556020820151816001019080519060200190610a6b929190610fb9565b5060408201518160020160006101000a81548160ff02191690831515021790555060608201518160020160016101000a81548160ff0219169083151502179055509050507fe21fa966ca5cd02748c0752352d18c48165e61cb55b4c29cccf924b5a95fcff182826040015160405180838152602001821515151581526020019250505060405180910390a150610b09565b80806001019150506108e9565b5050565b60008090505b600054811015610d33578160026000838152602001908152602001600020600001541415610d2657610b43611039565b600260008381526020019081526020016000206080604051908101604052908160008201548152602001600182018054600181600116156101000203166002900480601f016020809104026020016040519081016040528092919081815260200182805460018160011615610100020316600290048015610c055780601f10610bda57610100808354040283529160200191610c05565b820191906000526020600020905b815481529060010190602001808311610be857829003601f168201915b505050505081526020016002820160009054906101000a900460ff161515151581526020016002820160019054906101000a900460ff16151515158152505090508060600151158160600190151590811515815250508060026000848152602001908152602001600020600082015181600001556020820151816001019080519060200190610c95929190610fb9565b5060408201518160020160006101000a81548160ff02191690831515021790555060608201518160020160016101000a81548160ff0219169083151502179055509050507f572597a6891de3ffc5ddb25adeb4871a3bf451676410ca50eed9524c49bdc0e682826060015160405180838152602001821515151581526020019250505060405180910390a150610d33565b8080600101915050610b13565b5050565b60015481565b6002602052806000526040600020600091509050806000015490806001018054600181600116156101000203166002900480601f016020809104026020016040519081016040528092919081815260200182805460018160011615610100020316600290048015610def5780601f10610dc457610100808354040283529160200191610def565b820191906000526020600020905b815481529060010190602001808311610dd257829003601f168201915b5050505050908060020160009054906101000a900460ff16908060020160019054906101000a900460ff16905084565b60005481565b60008090505b600054811015610f34578260026000838152602001908152602001600020600001541415610f275781600260008381526020019081526020016000206001019080519060200190610e7d929190610f39565b507f126a0ea5197c062eb92c789989294eb8d2aef31cf41fd012da26dfab98b29a1681836040518083815260200180602001828103825283818151815260200191508051906020019080838360005b83811015610ee7578082015181840152602081019050610ecc565b50505050905090810190601f168015610f145780820380516001836020036101000a031916815260200191505b50935050505060405180910390a1610f34565b8080600101915050610e2b565b505050565b828054600181600116156101000203166002900490600052602060002090601f016020900481019282601f10610f7a57805160ff1916838001178555610fa8565b82800160010185558215610fa8579182015b82811115610fa7578251825591602001919060010190610f8c565b5b509050610fb59190611066565b5090565b828054600181600116156101000203166002900490600052602060002090601f016020900481019282601f10610ffa57805160ff1916838001178555611028565b82800160010185558215611028579182015b8281111561102757825182559160200191906001019061100c565b5b5090506110359190611066565b5090565b60806040519081016040528060008152602001606081526020016000151581526020016000151581525090565b61108891905b8082111561108457600081600090555060010161106c565b5090565b9056fea165627a7a723058206878708dffed7ce041991bee721f39a3c0b7741ebec36bc6111467b90784ef2a0029",
  "source": "pragma solidity ^0.5.0;\r\n\r\n//import \"openzeppelin-solidity/contracts/utils/math/SafeMath.sol\";\r\n\r\ncontract ToDoList{\r\n\r\n    //using SafeMath for uint256;\r\n\r\n    uint public taskCount = 0;\r\n    uint public biggestId = 0;\r\n\r\n    struct Task{\r\n        uint id;\r\n        string content;\r\n        bool completed;\r\n        bool deleted;\r\n    }\r\n\r\n    mapping (uint => Task) public tasks;\r\n\r\n    event TaskCreated(uint id, string content, bool completed, bool deleted);\r\n    event TaskCompleted(uint id, bool completed);\r\n    event TaskDeleted(uint id, bool deleted);\r\n    event TaskEdited(uint id, string content);\r\n\r\n    constructor() public{\r\n        createTask(\"test task\");\r\n    }\r\n\r\n    // if a task has been completed and flagged to true, createTask function will replace the completed task\r\n    // with a new one updating the id to a greater one (biggest)  \r\n    function createTask(string memory _content) public{\r\n        for(uint i=0; i<taskCount; i++){\r\n            if(tasks[i].deleted){\r\n                biggestId ++;\r\n                tasks[i].id = biggestId;\r\n                tasks[i].content = _content;\r\n                tasks[i].completed = false;\r\n                tasks[i].deleted = false;\r\n                emit TaskCreated(biggestId, _content, false, false);\r\n                break;\r\n            }\r\n            else if(!tasks[i].deleted && i==taskCount-1){\r\n                taskCount ++;\r\n                biggestId ++;\r\n                tasks[taskCount] = Task(biggestId, _content, false, false);\r\n                emit TaskCreated(biggestId, _content, false, false);\r\n                break;\r\n            }\r\n        }\r\n        if(taskCount == 0){\r\n            taskCount ++;\r\n            biggestId ++;\r\n            tasks[taskCount] = Task(biggestId, _content, false, false);\r\n            emit TaskCreated(biggestId, _content, false, false);\r\n        }\r\n    }\r\n\r\n    function toggleCompleted(uint _id) public {\r\n        for(uint i=0; i<taskCount; i++){\r\n            if(tasks[i].id == _id){\r\n                Task memory _task = tasks[i];\r\n                _task.completed = !_task.completed;\r\n                tasks[i] = _task;\r\n                emit TaskCompleted(i, _task.completed);\r\n                break;\r\n            }\r\n        }\r\n    }\r\n\r\n    function toggleDeleted(uint _id) public {\r\n        for(uint i=0; i<taskCount; i++){\r\n            if(tasks[i].id == _id){\r\n                Task memory _task = tasks[i];\r\n                _task.deleted = !_task.deleted;\r\n                tasks[i] = _task;\r\n                emit TaskDeleted(i, _task.deleted);\r\n                break;\r\n            }\r\n        }\r\n    }\r\n\r\n    function editTask(uint _id, string memory _content) public {\r\n        for(uint i=0; i<taskCount; i++){\r\n            if(tasks[i].id == _id){\r\n                tasks[i].content = _content;\r\n                emit TaskEdited(i, _content);\r\n                break;\r\n            }\r\n        }\r\n    }\r\n}",
  "sourcePath": "C:/Users/Federico Mioli/Desktop/Personale/git projects/To_do_list/src/contracts/ToDoList.sol",
  "compiler": {
    "name": "solc",
    "version": "0.5.0+commit.1d4f565a.Emscripten.clang"
  },
  "schemaVersion": "3.0.1",
  "updatedAt": "2022-06-20T07:48:23.658Z",
  "devdoc": {
    "methods": {}
  },
  "userdoc": {
    "methods": {}
  }
}